{"abi":[{"type":"constructor","inputs":[{"name":"_gateway","type":"address","internalType":"address"},{"name":"_universalApp","type":"address","internalType":"address"},{"name":"_universalAppBTC","type":"address","internalType":"address"},{"name":"_zetaChainId","type":"uint256","internalType":"uint256"}],"stateMutability":"nonpayable"},{"type":"function","name":"createSchedule","inputs":[{"name":"tokenIn","type":"address","internalType":"address"},{"name":"amount","type":"uint256","internalType":"uint256"},{"name":"interval","type":"uint256","internalType":"uint256"},{"name":"targetType","type":"uint8","internalType":"uint8"}],"outputs":[{"name":"id","type":"uint256","internalType":"uint256"}],"stateMutability":"nonpayable"},{"type":"function","name":"executeDCA","inputs":[{"name":"id","type":"uint256","internalType":"uint256"}],"outputs":[],"stateMutability":"nonpayable"},{"type":"function","name":"gateway","inputs":[],"outputs":[{"name":"","type":"address","internalType":"contract IGatewayEVM"}],"stateMutability":"view"},{"type":"function","name":"nextScheduleId","inputs":[],"outputs":[{"name":"","type":"uint256","internalType":"uint256"}],"stateMutability":"view"},{"type":"function","name":"queryUserBalance","inputs":[{"name":"id","type":"uint256","internalType":"uint256"}],"outputs":[],"stateMutability":"nonpayable"},{"type":"function","name":"requestWithdraw","inputs":[{"name":"id","type":"uint256","internalType":"uint256"},{"name":"wantUSDT","type":"uint256","internalType":"uint256"}],"outputs":[],"stateMutability":"nonpayable"},{"type":"function","name":"schedules","inputs":[{"name":"","type":"uint256","internalType":"uint256"}],"outputs":[{"name":"user","type":"address","internalType":"address"},{"name":"targetType","type":"uint8","internalType":"uint8"},{"name":"tokenIn","type":"address","internalType":"address"},{"name":"amount","type":"uint256","internalType":"uint256"},{"name":"interval","type":"uint256","internalType":"uint256"},{"name":"nextExec","type":"uint256","internalType":"uint256"},{"name":"totalInvested","type":"uint256","internalType":"uint256"},{"name":"active","type":"bool","internalType":"bool"}],"stateMutability":"view"},{"type":"function","name":"stopDCA","inputs":[{"name":"id","type":"uint256","internalType":"uint256"}],"outputs":[],"stateMutability":"nonpayable"},{"type":"function","name":"universalApp","inputs":[],"outputs":[{"name":"","type":"address","internalType":"address"}],"stateMutability":"view"},{"type":"function","name":"universalAppBTC","inputs":[],"outputs":[{"name":"","type":"address","internalType":"address"}],"stateMutability":"view"},{"type":"function","name":"zetaChainId","inputs":[],"outputs":[{"name":"","type":"uint256","internalType":"uint256"}],"stateMutability":"view"},{"type":"event","name":"QueryRequested","inputs":[{"name":"id","type":"uint256","indexed":true,"internalType":"uint256"}],"anonymous":false},{"type":"event","name":"ScheduleCreated","inputs":[{"name":"id","type":"uint256","indexed":true,"internalType":"uint256"},{"name":"user","type":"address","indexed":false,"internalType":"address"},{"name":"amount","type":"uint256","indexed":false,"internalType":"uint256"}],"anonymous":false},{"type":"event","name":"ScheduleExecuted","inputs":[{"name":"id","type":"uint256","indexed":true,"internalType":"uint256"},{"name":"amount","type":"uint256","indexed":false,"internalType":"uint256"},{"name":"totalInvested","type":"uint256","indexed":false,"internalType":"uint256"}],"anonymous":false},{"type":"event","name":"ScheduleStopped","inputs":[{"name":"id","type":"uint256","indexed":true,"internalType":"uint256"}],"anonymous":false},{"type":"event","name":"WithdrawRequested","inputs":[{"name":"id","type":"uint256","indexed":true,"internalType":"uint256"},{"name":"amount","type":"uint256","indexed":false,"internalType":"uint256"}],"anonymous":false}],"bytecode":{"object":"0x60806040526001600555348015610014575f80fd5b5060405161188e38038061188e83398181016040528101906100369190610196565b835f806101000a81548173ffffffffffffffffffffffffffffffffffffffff021916908373ffffffffffffffffffffffffffffffffffffffff1602179055508260015f6101000a81548173ffffffffffffffffffffffffffffffffffffffff021916908373ffffffffffffffffffffffffffffffffffffffff1602179055508160025f6101000a81548173ffffffffffffffffffffffffffffffffffffffff021916908373ffffffffffffffffffffffffffffffffffffffff16021790555080600381905550505050506101fa565b5f80fd5b5f73ffffffffffffffffffffffffffffffffffffffff82169050919050565b5f61013282610109565b9050919050565b61014281610128565b811461014c575f80fd5b50565b5f8151905061015d81610139565b92915050565b5f819050919050565b61017581610163565b811461017f575f80fd5b50565b5f815190506101908161016c565b92915050565b5f805f80608085870312156101ae576101ad610105565b5b5f6101bb8782880161014f565b94505060206101cc8782880161014f565b93505060406101dd8782880161014f565b92505060606101ee87828801610182565b91505092959194509250565b611687806102075f395ff3fe608060405234801561000f575f80fd5b50600436106100a7575f3560e01c80637fae6ba11161006f5780637fae6ba11461013d578063a3f2996a1461015b578063a8894e9f1461018b578063bdc6d9ab146101a9578063e20cd4e3146101e0578063f8013b98146101fc576100a7565b8063094ee62b146100ab5780630f038d41146100c7578063116191b6146100e55780631f7d568914610103578063566483c61461011f575b5f80fd5b6100c560048036038101906100c09190610e11565b610218565b005b6100cf61041b565b6040516100dc9190610e4b565b60405180910390f35b6100ed610421565b6040516100fa9190610ede565b60405180910390f35b61011d60048036038101906101189190610e11565b610444565b005b6101276106ee565b6040516101349190610e4b565b60405180910390f35b6101456106f4565b6040516101529190610f17565b60405180910390f35b61017560048036038101906101709190610f90565b610719565b6040516101829190610e4b565b60405180910390f35b610193610944565b6040516101a09190610f17565b60405180910390f35b6101c360048036038101906101be9190610e11565b610969565b6040516101d798979695949392919061101d565b60405180910390f35b6101fa60048036038101906101f59190611099565b610a03565b005b61021660048036038101906102119190610e11565b610d16565b005b60045f8281526020019081526020015f206006015f9054906101000a900460ff16610278576040517f08c379a000000000000000000000000000000000000000000000000000000000815260040161026f90611131565b60405180910390fd5b5f8160405160200161028a919061116f565b60405160208183030381529060405290505f6002826040516020016102af91906111f9565b6040516020818303038152906040526040516020016102cf929190611219565b60405160208183030381529060405290505f60045f8581526020019081526020015f2090505f6001825f0160149054906101000a900460ff1660ff16146103375760025f9054906101000a900473ffffffffffffffffffffffffffffffffffffffff1661035a565b60015f9054906101000a900473ffffffffffffffffffffffffffffffffffffffff165b90505f8054906101000a900473ffffffffffffffffffffffffffffffffffffffff1673ffffffffffffffffffffffffffffffffffffffff1663d345740d60035483866040518463ffffffff1660e01b81526004016103ba9392919061126a565b5f604051808303815f87803b1580156103d1575f80fd5b505af11580156103e3573d5f803e3d5ffd5b50505050847f2c1181f75ee6395012e8845f092a3d0e707cc3f8103942df4f8927f3d726312460405160405180910390a25050505050565b60055481565b5f8054906101000a900473ffffffffffffffffffffffffffffffffffffffff1681565b5f60045f8381526020019081526020015f209050806006015f9054906101000a900460ff166104a8576040517f08c379a000000000000000000000000000000000000000000000000000000000815260040161049f90611131565b60405180910390fd5b80600401544210156104ef576040517f08c379a00000000000000000000000000000000000000000000000000000000081526004016104e690611303565b60405180910390fd5b8060020154816005015f828254610506919061134e565b9250508190555080600301544261051d919061134e565b81600401819055505f82604051602001610537919061116f565b60405160208183030381529060405290505f600182846001015f9054906101000a900473ffffffffffffffffffffffffffffffffffffffff16604051602001610581929190611381565b6040516020818303038152906040526040516020016105a1929190611219565b60405160208183030381529060405290505f6001845f0160149054906101000a900460ff1660ff16146105f55760025f9054906101000a900473ffffffffffffffffffffffffffffffffffffffff16610618565b60015f9054906101000a900473ffffffffffffffffffffffffffffffffffffffff165b90505f8054906101000a900473ffffffffffffffffffffffffffffffffffffffff1673ffffffffffffffffffffffffffffffffffffffff1663d345740d60035483856040518463ffffffff1660e01b81526004016106789392919061126a565b5f604051808303815f87803b15801561068f575f80fd5b505af11580156106a1573d5f803e3d5ffd5b50505050847f86859ea6337a8a398d13e240d1fcd12a04d4e4140be713cb498c2696b3ce29f3856002015486600501546040516106df9291906113af565b60405180910390a25050505050565b60035481565b60015f9054906101000a900473ffffffffffffffffffffffffffffffffffffffff1681565b5f60055f81548092919061072c906113d6565b9190505590506040518061010001604052803373ffffffffffffffffffffffffffffffffffffffff1681526020018360ff1681526020018673ffffffffffffffffffffffffffffffffffffffff1681526020018581526020018481526020018442610797919061134e565b81526020015f81526020016001151581525060045f8381526020019081526020015f205f820151815f015f6101000a81548173ffffffffffffffffffffffffffffffffffffffff021916908373ffffffffffffffffffffffffffffffffffffffff1602179055506020820151815f0160146101000a81548160ff021916908360ff1602179055506040820151816001015f6101000a81548173ffffffffffffffffffffffffffffffffffffffff021916908373ffffffffffffffffffffffffffffffffffffffff160217905550606082015181600201556080820151816003015560a0820151816004015560c0820151816005015560e0820151816006015f6101000a81548160ff02191690831515021790555090505060018260ff1614806108c3575060028260ff16145b610902576040517f08c379a00000000000000000000000000000000000000000000000000000000081526004016108f990611467565b60405180910390fd5b807fbb051907c93213e5ff62ed7878fd8eb20c59968b150e38d9ab8f09cecf593a973386604051610934929190611485565b60405180910390a2949350505050565b60025f9054906101000a900473ffffffffffffffffffffffffffffffffffffffff1681565b6004602052805f5260405f205f91509050805f015f9054906101000a900473ffffffffffffffffffffffffffffffffffffffff1690805f0160149054906101000a900460ff1690806001015f9054906101000a900473ffffffffffffffffffffffffffffffffffffffff1690806002015490806003015490806004015490806005015490806006015f9054906101000a900460ff16905088565b5f60045f8481526020019081526020015f209050805f015f9054906101000a900473ffffffffffffffffffffffffffffffffffffffff1673ffffffffffffffffffffffffffffffffffffffff163373ffffffffffffffffffffffffffffffffffffffff1614610aa7576040517f08c379a0000000000000000000000000000000000000000000000000000000008152600401610a9e906114f6565b60405180910390fd5b806006015f9054906101000a900460ff16610af7576040517f08c379a0000000000000000000000000000000000000000000000000000000008152600401610aee90611131565b60405180910390fd5b8181600501541015610b3e576040517f08c379a0000000000000000000000000000000000000000000000000000000008152600401610b359061155e565b60405180910390fd5b81816005015f828254610b51919061157c565b925050819055505f83604051602001610b6a919061116f565b60405160208183030381529060405290505f6003828533604051602001610b9191906115f4565b604051602081830303815290604052604051602001610bb29392919061160e565b604051602081830303815290604052604051602001610bd2929190611219565b60405160208183030381529060405290505f6001845f0160149054906101000a900460ff1660ff1614610c265760025f9054906101000a900473ffffffffffffffffffffffffffffffffffffffff16610c49565b60015f9054906101000a900473ffffffffffffffffffffffffffffffffffffffff165b90505f8054906101000a900473ffffffffffffffffffffffffffffffffffffffff1673ffffffffffffffffffffffffffffffffffffffff1663d345740d60035483856040518463ffffffff1660e01b8152600401610ca99392919061126a565b5f604051808303815f87803b158015610cc0575f80fd5b505af1158015610cd2573d5f803e3d5ffd5b50505050857f622ec52892a9917a9f66bd872232d3bea677db12565dd6da5f4bfc14607ec1d786604051610d069190610e4b565b60405180910390a2505050505050565b60045f8281526020019081526020015f205f015f9054906101000a900473ffffffffffffffffffffffffffffffffffffffff1673ffffffffffffffffffffffffffffffffffffffff163373ffffffffffffffffffffffffffffffffffffffff1614610d7f575f80fd5b5f60045f8381526020019081526020015f206006015f6101000a81548160ff021916908315150217905550807fa9fdaed431e83306c7c66128a583c76b70d54100ac4d403ca7dcbc72e6daf3e160405160405180910390a250565b5f80fd5b5f819050919050565b610df081610dde565b8114610dfa575f80fd5b50565b5f81359050610e0b81610de7565b92915050565b5f60208284031215610e2657610e25610dda565b5b5f610e3384828501610dfd565b91505092915050565b610e4581610dde565b82525050565b5f602082019050610e5e5f830184610e3c565b92915050565b5f73ffffffffffffffffffffffffffffffffffffffff82169050919050565b5f819050919050565b5f610ea6610ea1610e9c84610e64565b610e83565b610e64565b9050919050565b5f610eb782610e8c565b9050919050565b5f610ec882610ead565b9050919050565b610ed881610ebe565b82525050565b5f602082019050610ef15f830184610ecf565b92915050565b5f610f0182610e64565b9050919050565b610f1181610ef7565b82525050565b5f602082019050610f2a5f830184610f08565b92915050565b610f3981610ef7565b8114610f43575f80fd5b50565b5f81359050610f5481610f30565b92915050565b5f60ff82169050919050565b610f6f81610f5a565b8114610f79575f80fd5b50565b5f81359050610f8a81610f66565b92915050565b5f805f8060808587031215610fa857610fa7610dda565b5b5f610fb587828801610f46565b9450506020610fc687828801610dfd565b9350506040610fd787828801610dfd565b9250506060610fe887828801610f7c565b91505092959194509250565b610ffd81610f5a565b82525050565b5f8115159050919050565b61101781611003565b82525050565b5f610100820190506110315f83018b610f08565b61103e602083018a610ff4565b61104b6040830189610f08565b6110586060830188610e3c565b6110656080830187610e3c565b61107260a0830186610e3c565b61107f60c0830185610e3c565b61108c60e083018461100e565b9998505050505050505050565b5f80604083850312156110af576110ae610dda565b5b5f6110bc85828601610dfd565b92505060206110cd85828601610dfd565b9150509250929050565b5f82825260208201905092915050565b7f696e6163746976650000000000000000000000000000000000000000000000005f82015250565b5f61111b6008836110d7565b9150611126826110e7565b602082019050919050565b5f6020820190508181035f8301526111488161110f565b9050919050565b5f819050919050565b61116961116482610dde565b61114f565b82525050565b5f61117a8284611158565b60208201915081905092915050565b5f81519050919050565b5f82825260208201905092915050565b8281835e5f83830152505050565b5f601f19601f8301169050919050565b5f6111cb82611189565b6111d58185611193565b93506111e58185602086016111a3565b6111ee816111b1565b840191505092915050565b5f6020820190508181035f83015261121181846111c1565b905092915050565b5f60408201905061122c5f830185610ff4565b818103602083015261123e81846111c1565b90509392505050565b50565b5f6112555f83611193565b915061126082611247565b5f82019050919050565b5f60808201905061127d5f830186610e3c565b61128a6020830185610f08565b818103604083015261129c81846111c1565b905081810360608301526112af8161124a565b9050949350505050565b7f746f6f206561726c7900000000000000000000000000000000000000000000005f82015250565b5f6112ed6009836110d7565b91506112f8826112b9565b602082019050919050565b5f6020820190508181035f83015261131a816112e1565b9050919050565b7f4e487b71000000000000000000000000000000000000000000000000000000005f52601160045260245ffd5b5f61135882610dde565b915061136383610dde565b925082820190508082111561137b5761137a611321565b5b92915050565b5f6040820190508181035f83015261139981856111c1565b90506113a86020830184610f08565b9392505050565b5f6040820190506113c25f830185610e3c565b6113cf6020830184610e3c565b9392505050565b5f6113e082610dde565b91507fffffffffffffffffffffffffffffffffffffffffffffffffffffffffffffffff820361141257611411611321565b5b600182019050919050565b7f496e76616c6964207461726765740000000000000000000000000000000000005f82015250565b5f611451600e836110d7565b915061145c8261141d565b602082019050919050565b5f6020820190508181035f83015261147e81611445565b9050919050565b5f6040820190506114985f830185610f08565b6114a56020830184610e3c565b9392505050565b7f6e6f74206f776e657200000000000000000000000000000000000000000000005f82015250565b5f6114e06009836110d7565b91506114eb826114ac565b602082019050919050565b5f6020820190508181035f83015261150d816114d4565b9050919050565b7f6578636565647320746f74616c20696e766573746564000000000000000000005f82015250565b5f6115486016836110d7565b915061155382611514565b602082019050919050565b5f6020820190508181035f8301526115758161153c565b9050919050565b5f61158682610dde565b915061159183610dde565b92508282039050818111156115a9576115a8611321565b5b92915050565b5f8160601b9050919050565b5f6115c5826115af565b9050919050565b5f6115d6826115bb565b9050919050565b6115ee6115e982610ef7565b6115cc565b82525050565b5f6115ff82846115dd565b60148201915081905092915050565b5f6060820190508181035f83015261162681866111c1565b90506116356020830185610e3c565b818103604083015261164781846111c1565b905094935050505056fea2646970667358221220738f149de822519565549c48a640f21f9379f07beeed578c781fb00f9d74f82964736f6c634300081a0033","linkReferences":{}},"methodIdentifiers":{"createSchedule(address,uint256,uint256,uint8)":"a3f2996a","executeDCA(uint256)":"1f7d5689","gateway()":"116191b6","nextScheduleId()":"0f038d41","queryUserBalance(uint256)":"094ee62b","requestWithdraw(uint256,uint256)":"e20cd4e3","schedules(uint256)":"bdc6d9ab","stopDCA(uint256)":"f8013b98","universalApp()":"7fae6ba1","universalAppBTC()":"a8894e9f","zetaChainId()":"566483c6"},"id":24}